
**Examples from ARINC-424 18 Spec.**

RESTRICTIVE AIRSPACE (UR)

SUSAURK1A680       A00101LN   CE                   N48110000W1223800000030       GND   03000MA-680                         060518807 
SUSAURK1A680       A00102T T15120024001500010200                                                                           060528808
SUSAURK1A680       B00101LN   CE                   N48110000W1223800000030       03000M10000MA-680                         060538807
SUSAURK1A680       B00102T T15120024001500010130                                                                           060548808
SUSAURK1MCHINOOK A  00101LN   G N48060300W122371500                              00300M05000MCHINOOK A                     060558807
SUSAURK1MCHINOOK A  00102H T1707001700                                                            FAA SEATTLE ARTCC        060568811
SUSAURK1MCHINOOK A  00200     G N48055500W122341600                                                                        060578806
SUSAURK1MCHINOOK A  00300     G N47520700W122363100                                                                        060588806
SUSAURK1MCHINOOK A  00400     GEN47522100W122393000                                                                        060598806
SUSAURK1R5704       00101LN   G N45520000W119290000                                                                        062498807
SUSAURK1R5704       00102T S1509001700                                           GND   03999MR-5704                        062468807
SUSAURK1R5704       00200     H N45500000W119290000                                                                        062478807
SUSAURK1R5704       00300     G N45500000W1 19303000                                                                       062488807
SUSAURK1R5704       00400     HEN45520000W1 19303000                                                                       062498807
SUSAURK1W460A       001018 N  G N46430000W128490000                              GND   UNLTD W-460A                        064108807
SUSAURK1W460A       00102                                                                         FAA OAKLAND ARTCC        064118807
SUSAURK1W460A       00200     G W47013000W127230000                                                                        064128807
SUSAURK1W460A       00300     G N46080000W127000000                                                                        064138807
SUSAURK1W460A       00400     GEN45500000W128270000                                                                        064148807